{
  "contractName": "Lottery",
  "abi": [
    {
      "inputs": [],
      "payable": true,
      "stateMutability": "payable",
      "type": "constructor"
    },
    {
      "constant": true,
      "inputs": [],
      "name": "manager",
      "outputs": [
        {
          "internalType": "address",
          "name": "",
          "type": "address"
        }
      ],
      "payable": false,
      "stateMutability": "view",
      "type": "function"
    },
    {
      "constant": true,
      "inputs": [
        {
          "internalType": "uint256",
          "name": "",
          "type": "uint256"
        }
      ],
      "name": "participants",
      "outputs": [
        {
          "internalType": "address payable",
          "name": "",
          "type": "address"
        }
      ],
      "payable": false,
      "stateMutability": "view",
      "type": "function"
    },
    {
      "constant": false,
      "inputs": [],
      "name": "receive",
      "outputs": [],
      "payable": true,
      "stateMutability": "payable",
      "type": "function"
    },
    {
      "constant": true,
      "inputs": [],
      "name": "getBalance",
      "outputs": [
        {
          "internalType": "uint256",
          "name": "",
          "type": "uint256"
        }
      ],
      "payable": false,
      "stateMutability": "view",
      "type": "function"
    },
    {
      "constant": true,
      "inputs": [],
      "name": "random",
      "outputs": [
        {
          "internalType": "uint256",
          "name": "",
          "type": "uint256"
        }
      ],
      "payable": false,
      "stateMutability": "view",
      "type": "function"
    },
    {
      "constant": false,
      "inputs": [],
      "name": "selectWinner",
      "outputs": [],
      "payable": false,
      "stateMutability": "nonpayable",
      "type": "function"
    }
  ],
  "bytecode": "0x6080604052336000806101000a81548173ffffffffffffffffffffffffffffffffffffffff021916908373ffffffffffffffffffffffffffffffffffffffff160217905550610584806100536000396000f3fe6080604052600436106100555760003560e01c806312065fe01461005a57806333a99e041461008557806335c1d3491461009c578063481c6a75146101175780635ec01e4d1461016e578063a3e76c0f14610199575b600080fd5b34801561006657600080fd5b5061006f6101a3565b6040518082815260200191505060405180910390f35b34801561009157600080fd5b5061009a610204565b005b3480156100a857600080fd5b506100d5600480360360208110156100bf57600080fd5b810190808035906020019092919050505061035e565b604051808273ffffffffffffffffffffffffffffffffffffffff1673ffffffffffffffffffffffffffffffffffffffff16815260200191505060405180910390f35b34801561012357600080fd5b5061012c61039a565b604051808273ffffffffffffffffffffffffffffffffffffffff1673ffffffffffffffffffffffffffffffffffffffff16815260200191505060405180910390f35b34801561017a57600080fd5b506101836103bf565b6040518082815260200191505060405180910390f35b6101a1610405565b005b60008060009054906101000a900473ffffffffffffffffffffffffffffffffffffffff1673ffffffffffffffffffffffffffffffffffffffff163373ffffffffffffffffffffffffffffffffffffffff16146101fe57600080fd5b47905090565b6000809054906101000a900473ffffffffffffffffffffffffffffffffffffffff1673ffffffffffffffffffffffffffffffffffffffff163373ffffffffffffffffffffffffffffffffffffffff161461025d57600080fd5b6003600180549050101561027057600080fd5b6000806001805490506102816103bf565b8161028857fe5b0691506001828154811061029857fe5b9060005260206000200160009054906101000a900473ffffffffffffffffffffffffffffffffffffffff1690508073ffffffffffffffffffffffffffffffffffffffff166108fc6102e76101a3565b9081150290604051600060405180830381858888f19350505050158015610312573d6000803e3d6000fd5b5060006040519080825280602002602001820160405280156103435781602001602082028038833980820191505090505b5060019080519060200190610359929190610482565b505050565b6001818154811061036b57fe5b906000526020600020016000915054906101000a900473ffffffffffffffffffffffffffffffffffffffff1681565b6000809054906101000a900473ffffffffffffffffffffffffffffffffffffffff1681565b600044426001805490506040516020018084815260200183815260200182815260200193505050506040516020818303038152906040528051906020012060001c905090565b670de0b6b3a764000034101561041a57600080fd5b60013390806001815401808255809150509060018203906000526020600020016000909192909190916101000a81548173ffffffffffffffffffffffffffffffffffffffff021916908373ffffffffffffffffffffffffffffffffffffffff16021790555050565b8280548282559060005260206000209081019282156104fb579160200282015b828111156104fa5782518260006101000a81548173ffffffffffffffffffffffffffffffffffffffff021916908373ffffffffffffffffffffffffffffffffffffffff160217905550916020019190600101906104a2565b5b509050610508919061050c565b5090565b61054c91905b8082111561054857600081816101000a81549073ffffffffffffffffffffffffffffffffffffffff021916905550600101610512565b5090565b9056fea265627a7a723158204f3ffc676ba6cdee6699e7068b970099cae4c8ec41cc74997fe8c2076322a84f64736f6c63430005100032",
  "source": "// SPDX-License-Identifier: GPL-3.0\r\npragma solidity >= 0.5 .0 < 0.9 .0;\r\n\r\n\r\ncontract Lottery {\r\n    address public manager;\r\n    address payable[] public participants;\r\n\r\n\r\n    constructor() public payable {\r\n        manager = msg.sender;\r\n    }\r\n\r\n    function receive() external payable {\r\n        require(msg.value >= 1 ether);\r\n        participants.push(msg.sender);\r\n    }\r\n\r\n    function getBalance() public view returns(uint) {\r\n        require(msg.sender == manager);\r\n        return address(this).balance;\r\n    }\r\n\r\n    function random() public view returns(uint) {\r\n        return uint(keccak256(abi.encodePacked(block.difficulty, block.timestamp, participants.length)));\r\n\r\n    }\r\n\r\n    function selectWinner() public {\r\n        require(msg.sender == manager);\r\n        require(participants.length >= 3);\r\n\r\n        uint index;\r\n        address payable winner;\r\n        index = random() % participants.length;\r\n        winner = participants[index];\r\n\r\n        winner.transfer(getBalance());\r\n        participants = new address payable[](0);\r\n\r\n    }\r\n\r\n\r\n}",
  "sourcePath": "C:\\Users\\HARSH\\Desktop\\VsCOde\\lottery-app\\contracts\\Lottery.sol",
  "compiler": {
    "name": "solc",
    "version": "0.5.16+commit.9c3226ce.Emscripten.clang"
  },
  "schemaVersion": "3.4.3",
  "updatedAt": "2021-09-09T12:14:49.101Z",
  "devdoc": {
    "methods": {}
  },
  "userdoc": {
    "methods": {}
  }
}